:100000000C942A000C9447000C9447000C94470071
:100010000C9447000C9447000C9447000C94470044
:100020000C9447000C9447000C9447000C941F015B
:100030000C944C010C9447000C9447000C9447001E
:100040000C9447000C9447000C9447000C94470014
:100050000C94470011241FBECFE5D4E0DEBFCDBF16
:1000600011E0A0E6B0E0E2E4F6E002C005900D92F7
:10007000A233B107D9F721E0A2E3B1E001C01D929C
:10008000A737B207E1F70E9470000C941F030C948D
:100090000000CF93DF93EC010E94860190FFFCCF1C
:1000A0000E946F02CE010E948C02CE010E94B60116
:1000B0002FEF89E698E1215080409040E1F700C0A1
:1000C00000000E9486018F3419F4DF91CF910895CA
:1000D00084E790E00E948C0281E090E00E941F0380
:1000E000CF93DF93CDB7DEB760970FB6F894DEBF3E
:1000F0000FBECDBF8CE00E94AE0280E690E00E9471
:100100008C028CE090E00E94710178942FEF89E6D8
:1001100098E1215080409040E1F700C0000001E0EC
:1001200010E00E946F0285E690E00E948C024AE097
:10013000BE016F5F7F4FC8010E94EA02CE010196A7
:100140000E948C0280E391E00E948C020E94860152
:1001500090FFFCCF8DE690E00E94B6012FEF89E67C
:1001600098E1215080409040E1F700C000000E94DB
:10017000860189838F34F9F0CE0101960E948C02AA
:100180002FEF89E698E1215080409040E1F700C0D0
:1001900000000F5F1F4F0A30110519F60E946F0211
:1001A0008981813359F082E790E00E948C0281E0DE
:1001B00090E00E941F0381E38983F0CF8BE790E0FA
:1001C0000E94490085E890E00E94490087E990E09C
:1001D0000E9449008BEA90E00E94490085EC90E083
:1001E0000E94490084ED90E00E94490085EE90E075
:1001F0000E9449000E946F0280EF90E00E948C02F2
:100200002FEF89E698E1215080409040E1F700C04F
:10021000000082E091E00E948C0289E190E00E945F
:10022000710187E191E00E94B6012FEF89E698E124
:10023000215080409040E1F700C00000F2CF1F92B3
:100240000F920FB60F9211242F938F939F93EF93DA
:10025000FF938BB12CB1E0913401EF5FEF7190917E
:1002600033019E17B9F0982F9871E0933401F0E0B4
:10027000E95CFE4F208380913201892B809332010B
:10028000FF91EF919F918F912F910F900FBE0F9043
:100290001F90189592E0EFCF1F920F920FB60F921A
:1002A00011248F939F93EF93FF9390913601809148
:1002B00035019817A1F0E0913501EF5FEF71E09300
:1002C0003501F0E0E95AFE4F80818CB9FF91EF9142
:1002D0009F918F910F900FBE0F901F90189555987A
:1002E000F5CF109236011092350110923401109220
:1002F0003301992344F0907890BD89B988E98AB98F
:1003000086E880BD089522E02BB9F5CF90913401A5
:10031000809133019817B1F0909133019F5F9F71E5
:10032000E92FF0E0E95CFE4F30812091320190939B
:10033000330110923201822F90E0982F8827830F8B
:10034000911D089580E091E00895909136019F5F9E
:100350009F71209135012917E1F3E92FF0E0E95A67
:10036000FE4F808390933601559A0895CF93DF9383
:10037000EC018881882331F021960E94A5018991A2
:100380008111FBCFDF91CF910895CF93DF93EC01E3
:100390002196FC018491882339F00E94A501FE0179
:1003A000849121968111F9CFDF91CF910895AA9A76
:1003B00082E08A95F1F700C0AA980895CF93C82FDC
:1003C000662341F1AB9AA998A49AA59AA69AA79AEE
:1003D000AF98AE98AD98AC98CC23F4F0C6FDAE9A29
:1003E000C5FDAD9AC4FDAC9A0E94D701AF98AE98F6
:1003F000AD98AC98C3FDAF9AC2FDAE9AC1FDAD9A5F
:10040000C0FDAC9A0E94D701AC9AAD9AAE9AAF9A51
:10041000CF910895AB98D7CFAF9AE0CF882341F121
:10042000AB9AA99AA498A598A698A798AA9A82E0A8
:100430008A95F1F700C09C9B1DC080E19D99806268
:100440009E9980649F9918C0AA9892E09A95F1F7B6
:1004500000C0AA9A92E09A95F1F700C09C99816039
:100460009D9982609E9984609F9908C0AA9808957A
:10047000AB98D7CF80E0E2CF8068E6CF8860F6CF38
:1004800080E00E940E028823DCF38AE08A95F1F76F
:1004900000C080E00E940E020895CF93C82F0E94F2
:1004A000400260E08C2F0E94DE01CF910895CF932F
:1004B000C82F0E94400261E08C2F0E94DE01CF9184
:1004C0000895662321F080540E944D0208958058BB
:1004D0000E944D0208950E94400290E0089581E03C
:1004E0000E944D02089582E00E944D020895CF932C
:1004F000C82F0E944002CA3051F4803430F080E0AE
:1005000080580E944D02CF91089580E4F9CF61E0B8
:100510008C2F0E94DE01F7CFCF93DF93EC01219661
:10052000FC018081882329F00E9477028991811142
:10053000FBCFDF91CF910895CF93DF93EC0121960C
:10054000FC018491882339F00E947702FE01849196
:1005500021968111F9CFDF91CF910895CF93C82FC4
:10056000A39AA19AA29AA49AA59AA69AA79A8FEF5B
:100570009CE70197F1F700C00000AD9AAC9A0E9489
:10058000D7018FE097E20197F1F700C000000E94C9
:10059000D7019AEA9A95F1F700C00E94D7018AEA3A
:1005A0008A95F1F700C0AC980E94D7019AEA9A9513
:1005B000F1F700C088E20E944D0288E00E944D02DF
:1005C0000E946F0286E00E944D028C2F0E944D0215
:1005D000CF910895BB274A3031F4992322F4BDE22C
:1005E000909581959F4F0C94F602BB27FB015527F0
:1005F000AA27880F991FAA1FA41710F0A41B839580
:100600005051B9F7A05DAA3308F0A95DA1930097F6
:1006100079F7B111B1931192CB010C940F03DC0166
:10062000FC01672F71917723E1F7329704C07C9129
:100630006D9370836291AE17BF07C8F30895F89465
:02064000FFCFEA
:10064200696E697400415420747279200041540D1E
:100652000A004154206572726F720041542B4F524E
:10066200474C0D0A0041542B4E414D453D224D4B06
:10067200333132220D0A0041542B554152543D313F
:10068200393230302C302C300D0A0041542B495075
:100692005343414E3D313032342C312C31303234DF
:1006A2002C310D0A0041542B504F4C41523D312CFC
:1006B200310D0A0041542B505357443D22313233FD
:1006C20034220D0A0041542B52455345540D0A0061
:1006D20050726F6772616D6D696E6720646F6E65CF
:1006E2000A0053656E64696E67202248656C6C6F00
:1006F20020576F726C640048656C6C6F20776F7264
:100702006C642066726F6D20224D4B333132220DA4
:020712000A00DB
:00000001FF
